:1000000018510010431400001515000015150000CC
:100010001515000015150000151500000000000062
:10002000000000000000000000000000411400007B
:10003000151500000000000015150000AD030000BC
:100040001715000017150000171500001715000000
:10005000C91700001915000017150000171500003A
:1000600017150000171500001715000017150000E0
:1000700017150000171500001715000017150000D0
:1000800017150000171500001715000017150000C0
:1000900017150000171500001715000017150000B0
:1000A00017150000171500001715000017150000A0
:1000B0001715000017150000171500001715000090
:1000C00017150000171500001715000000000000AC
:1000D0000000000000000000000000000000000020
:1000E0000000000000000000000000000000000010
:1000F0000000000000000000000000000000000000
:1001000000000000000000000000000000000000EF
:1003000001460023074A05E012F8010B0028FBD143
:100310000133DBB28B4202D010780028F4D10248BE
:1003200001F02CBE7C51000044580000F0B504469A
:100330008DB06846214603F0D9FE17E03B7A13F0F2
:10034000100F15D0154B20461A8801321A8004F080
:10035000E5FEC5B22F23681C635507F1090120187B
:1003600004F07EFE2046FFF7E1FF665548B112E03B
:100370000B4B39681A8801321A800A4B1A688A189E
:100380001A606846084903F0EBFE064618B9064FA6
:100390007B7A002BD2D10DB0F0BD00BF0C4900100C
:1003A0000E490010D80700106C030010094B1A68A2
:1003B00001321A60084B1A680132B2F5FA7F1A60EE
:1003C00006DB00221A60054B1A6882F480021A606C
:1003D00002F0B4BAD40700100400001014C00920C1
:1003E00007B5684601F094F99DF802009DF80330C6
:1003F000400540EA03409DF8053040EAC3209DF8DF
:10040000063040EA43109DF8073040EA5300BDF83B
:100410000030A3F5F6630C3B40EA43600EBD2DE9C6
:10042000F047974B4FF480021A60964B964A98B06B
:100430001A60072243F8042C01F05CF901F00AF974
:10044000924A934B93481A60934A944B00261A6041
:1004500001F0A0FC924893494FF4697201F08EFDBF
:100460004FF4804435463E20DFF83C8201F07AFCB0
:100470008D484FF4807101F0FFFD424612F8013BB8
:100480004746662B169200F0F28208D8622B00F0E5
:100490001182642B00F0E1803F2BE4D108E0702B47
:1004A00000F05187742B00F067876D2BDBD103E0E0
:1004B0007E4801F06FFCD6E798F8013008F102029F
:1004C000652B169264D0662B41D0642BCBD198F863
:1004D000023008F10302682B169203D0772B03D168
:1004E000733B02E0022300E0012316A815A9139331
:1004F00001F0F6FD0028B6D016A814A901F0F0FD11
:1005000020B9139B802292FBF3F31493159B16934F
:100510000EE01698014601F067FD169B6FF00F0282
:1005200010331693139B92FBF3F3149AD31814937E
:10053000139B1022149F92FBF3F29742E9DA002FEB
:1005400091D016983A46014601F04EFD8BE716A869
:1005500015A901F0C5FD002885D016A814A901F041
:10056000BFFD00283FF47FAF16A813A901F0B8FD26
:1005700000283FF478AF05E0159B149A1A70159B7C
:1005800001331593139B5A1E1392002BF4D16AE783
:1005900098F80230FA1C682B169203D0772B03D1FF
:1005A000733B02E0022300E0012316A815A9139370
:1005B00001F096FD00283FF456AF16A814A901F0EB
:1005C0008FFDB0B11399159B0229149A03D0042909
:1005D00003D11A6002E01A8000E01A70159A139B8A
:1005E00016A8D31814A9159301F07AFD0028E9D1B3
:1005F00039E7139B1599022B04D0042B05D12C4805
:100600000A6804E02B480A8801E02B480A7801F0C8
:10061000B5FC38464FF48071169701F02DFD169BFE
:100620001B782E2B3FF41FAF1F2B11D916A814A92E
:1006300001F056FD0028DCD01399159B0229149A6D
:1006400003D0042903D11A6002E01A8000E01A7076
:10065000159A139BD3181593CBE798F8013008F13E
:100660000202642B169229D003D8632B7FF4FBAED1
:10067000E4E0692B59D0732B7FF4F5AE65E000BF41
:1006800000C0092014E000E09F860100051600006C
:100690001449001075580000D915000010490010C9
:1006A0008B5800009A5800000C4800105F52000060
:1006B000A3580000B0580000BD58000016A815A9A6
:1006C00001F00EFD10B91595149606E016A814A9B0
:1006D00001F006FD00283FF4C6AE9DF85450149F6B
:1006E0002846A6493A46012301F072FF804628B108
:1006F000A348414601F042FC3E46B4E63A46A148D2
:10070000294601F03BFC9D4B7E1C16934746012376
:1007100039461022169801F067FC169B10371033EB
:10072000B7F5007F1693F2D19DE616A815A901F042
:10073000D7FC00283FF497AE9DF8540001F066FE08
:1007400001468F4801F01AFC8DE616A815A901F0A4
:10075000C7FC00283FF487AE9DF85400012114AA7D
:1007600001F0C4FF18B98848149901F007FC9DF8FE
:100770005400032114AA01F0B9FF18B98348149951
:1007800001F0FCFB9DF8540032210DF15F0201F0F5
:10079000ADFF20B97E489DF85F1001F0EFFB9DF89A
:1007A00054003321754A01F0A1FF074640B979484A
:1007B00001F0F0FA714839461022012301F014FCCF
:1007C0009DF8540034216D4A01F090FF074640B96E
:1007D000714801F0DFFA694839461022012301F01F
:1007E00003FC9DF854003521644A01F07FFF074661
:1007F00040B96A4801F0CEFA604839460422012324
:1008000001F0F2FB9DF8540036215C4A01F06EFFC6
:10081000074600287FF427AE614801F0BBFA129723
:1008200008E0564801234018102201F0DDFB129B1E
:100830001033129312993F29F3D914E698F8023035
:1008400008F10302652B169214D0732B7FF40BAEC4
:1008500016A815A901F044FC00283FF404AE0021BD
:100860000A469DF8540001F041FF0146444801F05A
:1008700085FBF8E516A815A901F032FC00283FF425
:10088000F2AD16A80DA901F02BFC00283FF4EBAD4A
:1008900016A80EA901F024FC00283FF4E4AD0421C1
:1008A0009DF854000DAA01F021FF0146344801F0E3
:1008B00065FBD8E598F80130BA1C662B169200F05B
:1008C000C78005D8642B09D0652B7FF4CCAD24E01C
:1008D000722B7BD0772B7FF4C6AD98E016A815A9B4
:1008E00001F0FEFB00283FF4BEAD159F234BFB1823
:1008F0001693202310930CE03946012316981022FA
:1009000001F072FB109B1037013B1093169B1033C4
:100910001693109B002BEFD1A5E516A815A901F0A1
:10092000DFFB00283FF49FAD16A814A901F0D8FB07
:10093000DFF8488060B1159B149A16A808F80320C8
:1009400014A90133159301F0CBFB0028F3D18AE5FC
:10095000159B144899B218F8032001F00FFB1248B8
:100960004FF4807101F088FB3B7816972E2B3FF4F3
:100970007AAD1F2B1AD8159B21E000BFDC070010B1
:10098000CA580000D1580000E1580000FA58000091
:100990001359000023590000295900002F59000065
:1009A00035590000415900000C48001016A814A940
:1009B00001F096FB30B1159B1499B04AD154013324
:1009C0001593C5E7AE4801F0E5F9C1E716A815A9EA
:1009D00001F086FB00283FF446AD16A814A901F0EB
:1009E0007FFB00283FF43FAD16A813A901F078FB68
:1009F00008B9012313939DF85400A049149A139B3E
:100A000001F0E6FD01469F4801F0B8FA2BE516A873
:100A100015A901F065FB00283FF425AD16A814A91F
:100A200001F05EFB00283FF41EAD16A813A901F0EB
:100A300057FB08B9012313939DF854008F49149A6A
:100A4000139B01F0FFFD01468E4801F097FA0AE57D
:100A500016A815A901F044FB00283FF404AD9DF849
:100A600054104FF48042854804F01AFAFBE498F8D9
:100A7000013002374C3B16972E2B3FF6F4AC01A207
:100A800052F823F0F70D000067040000670400002F
:100A900067040000670400006704000067040000AA
:100AA000670400006704000067040000670400009A
:100AB000670400006704000067040000670400008A
:100AC000670400006704000067040000670400007A
:100AD00067040000670400009F100000B7120000C8
:100AE000790E0000B90E0000870E000067040000B8
:100AF0007F12000067040000410B00006704000043
:100B00008B100000E10C0000CB1200002F10000041
:100B10004B0E00006704000093120000130F00004A
:100B2000630B0000DD10000065100000791000006C
:100B3000A90F00007F110000670400001F130000D0
:100B400016A814A901F0CCFA00B914904E499DF8EA
:100B500050204E4802F077FEFFF7D2FB83E40130CD
:100B6000169016980378202BF9D015A90FAA03F038
:100B700060FB10B1FFF7C4FB75E40F9B44481A7883
:100B8000444B03EB8203D3F8B41601F0F7F90F9B43
:100B900041485989490201F0F1F90F9B3F48997882
:100BA00001F0ECF90F9B1A78022A03D83C48198906
:100BB00001F0E4F90F9B3B48D96901F0DFF90F9B85
:100BC00039489969023901F0D9F90F9B3748196AF8
:100BD00001F0D4F90F9B3648596A01F0CFF90F9B09
:100BE0003448996A01F0CAF90F9B3348D96A01F079
:100BF000C5F91698214914AA03F0A6FD074610B1BD
:100C0000FFF77EFB2FE41D492C4B08782C4ADFF8B8
:100C1000C08000280CBF1046184601F0AFF9149AA6
:100C20002848110CDFF8AC9092B2DFF8ACA001F0CC
:100C3000A5F92548C8F80070A9F80070AAF8007056
:100C400001F09CF91698FFF771FB10B1FFF758FB04
:100C500009E40F98BAF800104289806952080238F6
:100C6000504300901598B9F800304243019217485C
:100C7000D8F8002001F082F9FFF7F5BBDC0700107F
:100C80004C590000515900003E5A00003801001034
:100C9000585900007C510000675900007C59000041
:100CA00091590000A8590000BB590000D559000017
:100CB000EF590000065A0000265A00005158000063
:100CC000645800003F5A00008A5B0000585A000038
:100CD000D80700100C4900100E4900100131169180
:100CE00016990B78202BF9D0994803F0FFF918B129
:100CF000FFF706FBFFF7B7BB1190129015909448D1
:100D0000944903F02DFA002859D19248437A002BD8
:100D100055D0037A13F0100F03D0119B01331193B8
:100D200006E0129B159A013312930368D3181593AA
:100D3000077AB0F804E007F0100107F0010207F0AD
:100D4000020307F0040807F02007002F0CBF2D272F
:100D50004127B0F806C001974FEA5E2707F5F6670E
:100D60000C3702974FEA5E1707F00F0703970EF054
:100D70001F0704974FEADC274FEA5C1C0597B8F180
:100D8000000F0CBF4FF02D084FF053080CF03F0739
:100D9000CDF800800697006800290CBF2D21442162
:100DA00007906D48002A0CBF2D2252220890002B7C
:100DB0000CBF2D234823694801F0E0F89FE76848FD
:100DC0001299159A119B01F0D9F8169815A90FAA36
:100DD00003F02FFA48B90F9A159B51895B026148BD
:100DE000594301F0CBF8FFF73EBBFFF789FAFFF755
:100DF0003ABB01321692169A1378202BF9D000E0F4
:100E0000169316990B4613F8010B2028F8D12038B9
:100E1000087050494E48169303F0DCF908E0524838
:100E200007F1090101F0AAF84948394603F0BBF976
:100E300020B9484F7B7A002BF1D101E0FFF760FA2F
:100E4000434803F085F9FFF70EBB16A815A901F07A
:100E500047F900283FF407AB01E0013116911699DC
:100E60000B78202BF9D09DF85420404802F012FD59
:100E7000FFF746FAFFF7F7BA3C4802F0BAFFFFF770
:100E80003FFAFFF7F0BA16A815A901F029F90028D2
:100E90003FF4E9AA3548159903F081F80746FFF7B2
:100EA0002FFA002F7FF4DFAA304B314859690A46E8
:100EB00001F064F8FFF7D7BA16A815A901F010F9E8
:100EC00000283FF4D0AA294B5F691DE00F2B03D9FE
:100ED00010221092103B01E0109300231593234839
:100EE0002449109A10AB02F0BBFD18B1FFF708FAC5
:100EF000FFF7B9BA109A002A3FF4B5AA39461D483F
:100F0000012301F071F81037159B002BDED1FFF79C
:100F1000AABA16A815A901F0E3F800283FF4A3AA7D
:100F2000154F002314933B602FE0A3422BBFC4EB6B
:100F3000030310931094002315930C480D49109A45
:100F400011AB02F08DFDC8B1FFF7DAF920E000BF68
:100F5000DC4700106C03001075030010A85A000055
:100F6000D45A0000FD5A0000D05A0000840300103B
:100F7000115B0000DC070010D4070010119B149ACD
:100F8000D2181492109A9A4202D1159B002BCCD100
:100F90003A6814991AB1994B1A68B1FBF2F2984861
:100FA00000F0ECFFFFF75FBA16A815A901F098F85A
:100FB00000283FF458AA16A814A901F091F80028B7
:100FC0003FF451AA8F489DF8501022468B4F03F0F2
:100FD00067FF002314933B6018E0A3422BBFC4EBD0
:100FE0000303109310940023159387488549109AA2
:100FF00011AB02F0E7FD10B1FFF782F909E0119B98
:10100000149AD2181492109A9A4202D1159B002B6E
:10101000E3D13A6814991AB1784B1A68B1FBF2F22D
:101020007A4800F0ABFFFFF71EBA01301690169811
:101030000378202BF9D0202103F08CFF00283FF407
:1010400012AA0023037000E008464378411C202BBD
:10105000FAD0169803F098FAFFF752F9FFF703BA9F
:101060000130169016980378202BF9D003F0A0F9E0
:10107000FFF746F9FFF7F7B9634803F046F9FFF7C2
:101080003FF9FFF7F0B90130169016980378202B3E
:10109000F9D003F0ECF9FFF733F9FFF7E4B916A83C
:1010A00015A901F01DF800283FF4DDA916A814A920
:1010B00001F016F800283FF4D6A901E0013016909F
:1010C00016980378202BF9D09DF854109DF85020E5
:1010D00003F0E3FAFFF714F9FFF7C5B916A815A94D
:1010E00000F0FEFF00283FF4BEA916A814A900F0E6
:1010F000F7FF00283FF4B7A916A813A900F0F0FFE6
:1011000000283FF4B0A9159B149AA3F5F66302F0EA
:101110000F0252010C3B42EA4323139A3C4F02F068
:101120001F021343BB8016A815A900F0D9FF0028A1
:101130003FF499A916A814A900F0D2FF00283FF4A3
:1011400092A916A813A900F0CBFF00283FF48BA9A1
:10115000139B149A5B1002F03F0203F01F0343EA53
:101160004213159A394643EAC223FB80169803F0CE
:10117000C1FAFFF7C5F8FFF776B901301690169857
:101180000378202BF9D0202103F0E4FE00283FF45F
:101190006AA90023037000E038464378471C202BDF
:1011A000FAD01C48169900F0E9FE1748169901225A
:1011B00002F070FB80460A2000F0D4FDB8F1000F69
:1011C00004D04046FFF79CF8FFF74DB91248394666
:1011D00000F0D4FE114839460A2202F05BFB80463B
:1011E0000A2000F0BFFDB8F1000F19D04046FFF70C
:1011F00087F8054802F0FDFDFFF735B9D407001068
:10120000225B0000DC07001084030010415B00003B
:101210006C030010635B0000705B0000AC05001005
:101220007A4F7B4800F0AAFEC7F80080CDF85480C2
:1012300078487949224612AB02F012FC70B9129A32
:1012400062B111AB7548744902F0BCFC159A119B50
:10125000D218159210B9129A9342E9D215993A68A8
:101260006F48B1FBF2F200F089FE6A4802F0C1FD5E
:101270006A4802F0BEFDFFF7F6B8013016901698E6
:101280000378202BF9D002F0D1FDFFF739F8FFF7F2
:10129000EAB864484FF4807102F0F9FD18B1FFF725
:1012A0002FF8FFF7E0B860485E4900F067FEFFF7EF
:1012B000DAB80130169016980378202BF9D003F095
:1012C00091FAFFF71DF8FFF7CEB816A814A900F0A1
:1012D00007FF00283FF4C7A816A813A900F000FFD5
:1012E00000283FF4C0A8514800F048FE4D484FF494
:1012F000807100F0C1FE98F80030592B7FF4B3A83C
:101300004FF480439DF85010BDF84C20009348489E
:10131000414B03F0FDFAFEF7F3FFFFF7A4B816A860
:1013200015A900F0DDFE30B1159B002B03DDB3F5F0
:10133000804FD8BF1C463F48214600F01FFEFFF7F4
:1013400092B80131169116990B78202BF9D03148BB
:10135000012202F09FFA18B1FEF7D2FFFFF783B81F
:1013600035492D4A4FF480432A4800F04FFB294865
:1013700002F03FFDFFF777B816A815A900F0B0FE00
:1013800060B3BDF8542015A916A8ADF82C2000F0C4
:10139000A7FE159B15A916A88DF82E3000F0A0FE0B
:1013A000159B15A916A88DF82F3000F099FE159BF6
:1013B00015A916A88DF8313000F092FE159B16A8DD
:1013C00015A98DF8323000F08BFE00283FF44BA8B1
:1013D000159B0BA88DF8333000F0DAF90BA800F05C
:1013E00097F99DF83100BDF82C1000909DF832005F
:1013F0009DF82E2001909DF833009DF82F3002902B
:101400000E4800F0BBFDFFF72EB800BFD407001058
:101410007E5B000084030010DC070010AC050010A8
:101420008E5B00000C480010D05A0000B05B00003A
:101430003E5A0000E35B0000EC5B0000F75B00003D
:10144000FEE7284B28481A68AA2122F4704242F489
:1014500080421A6001230360244B55220024196046
:101460001A60046019601A60214B353A1A60204BEB
:101470001B6813F0400FFAD01E4B012003221860A6
:1014800043F8082C1C4A184C43F8882CAA215522F2
:1014900043F8801C43F8802C206043F8801C43F8FC
:1014A000802C164B1B6813F0806FFAD00E4B032272
:1014B0001A60A732DA60553ADA60114A114B03E03C
:1014C00052F8041B43F8041B0F498B42F8D30F4B0F
:1014D00002E0002243F8042B0D4A9342F9D3FEF7B1
:1014E0009EFFFEE700C00F4080C00F408CC00F4041
:1014F000A0C10F400CC10F40C7000B0088C00F40B7
:10150000205D000000000010040000100400001026
:1015100018490010FEE7FEE770B5284B1B68DBB2E8
:1015200013F0010F48D103F00703022B1DD0042B49
:101530003DD1234B59889A8889B292B218460AE065
:10154000204C7F2A2568EDB205DC44180131A571D5
:1015500001F07F0101321C4C246814F0010FEFD11F
:1015600089B292B259809A80D7E7154BB3F88A2096
:101570001C4692B2C2B1B3F88610102089B2651829
:1015800095F88E6001380F4D0131C0B22E6001F028
:101590007F01013A08B1002AF1D189B292B2A3F8D1
:1015A0008610A3F88A20B8E7A3F88C20B5E7064B8D
:1015B0001B68044B1B68B0E770BD00BF08C000404B
:1015C0000800001000C0004014C00040014B988883
:1015D00080B2704708000010094B9A8892B2002A26
:1015E000FAD01A8892B29918013202F07F028879F3
:1015F0001A8072B69A88013A92B29A8062B670479F
:1016000008000010114BB3F88A2092B27F2AF9D853
:1016100072B6B3F88C2092B28AB1B3F8882092B235
:101620009918013202F07F0281F88E00A3F8882019
:10163000B3F88A20013292B2A3F88A2004E0044A67
:1016400010600122A3F88C2062B6704708000010D9
:1016500000C000401F4B202130B519601E4B1F4CAD
:101660001A681F4842F008021A60D3F8E4200625E1
:1016700022F0C002C3F8E4201A4A83231360833B9C
:10168000036025607B35A56203241460843442F82E
:10169000044C073C5462144AA2F88630A2F8883001
:1016A000A2F88A30A2F88C301380538093800F4BBD
:1016B0001A6822F0C00242F040021A601A6822F052
:1016C000300242F010021A6007230360084B1960D1
:1016D00030BD00BF80E100E0C4C00F4000C000404A
:1016E00004C000400CC000400800001000C00240D0
:1016F00000E100E0044B01201A6842F400721A6015
:10170000024B11221A607047C4C00F4008400240CB
:1017100010B51C4C1C4923680A682468A342F8D100
:1017200009688A42F5D11949096811F0100F0CD0E7
:1017300001220023C270827040F2DE72C371837195
:10174000437103710280184610BD03F03F01C1715F
:10175000190A01F03F018171190C1B0E03F00703F8
:10176000037102F01F03C370130A120C120501F07B
:101770001F0103F00F03120D4171837002800120DD
:1017800010BD00BF14400240184002405C400240BF
:101790000B4B12221A60C1790A4A1160817951609B
:1017A0004179916001791161C178D160817891614D
:1017B00001880120D1611021D16311221A60704784
:1017C0000840024020400240304B30B51A68304B90
:1017D00019681960002A58D01068D1680128146966
:1017E00053680AD002D302281AD110E000294CD045
:1017F000E05C01390002013310E0012945D9E55CC4
:10180000E41860782D0200020239023315E0012944
:101810003BD9E05A023980F40040023305460CE01F
:10182000032932D9E55AE4181A486488454084EA05
:101830000000ADB280B204390433D1605169C009EF
:1018400001390B40536040F2FF12EB09934208BF8D
:101850004FF4FF731049904208BF4FF4FF705A08CD
:101860000A6003F00103D243D31A03F0FF030B4ACB
:101870004B604308136000F00100DB43181A00F0CE
:10188000FF00074BD0611F221A6030BD1801001005
:10189000004009400080FFFF1C800140248001407F
:1018A00050800140A1F5FA5249F640439A4270B582
:1018B0004FF0000258D82D4B426018608260C26021
:1018C0002B482C4D0368FF2643F0400303602A4B4E
:1018D0001C6824F4405444F480541C60274B0224B8
:1018E0002C601C605E60264E802333607360B360A2
:1018F0007362244B4FF4F0561E6009232B60224B79
:101900001D6825F0030545F001051D601D6825F0E3
:101910000C0545F004051D601D6825F0300545F0F7
:1019200010051D601D6825F0C00545F040051D60CF
:10193000036843F400030360144B186820F440402C
:1019400018601348134BB0FBF1F1134801391C60C8
:10195000016012490320086002381860104B102102
:101960001960104B1A7070BD104670BD1801001040
:10197000C4C00F4004800140A8C10F401480014042
:101980001C8001404C80014010C00240ACC10F409F
:1019900040787D0104400940184009401440094046
:1019A00000E100E004E400E0124B134A002119605A
:1019B000136843F040031360104B186820F00300D5
:1019C0001860186820F00C001860186820F03000CB
:1019D0001860186820F0C0001860094B10201960CA
:1019E000084B1860136843F400031360064B19603A
:1019F000704700BF04800140C4C00F4010C00240C7
:101A00000440094080E100E0180100102DE9F04F8A
:101A10001546B1B004469A48069300F0AFFA204646
:101A200029460C222FAB02F01BF8002840F08B81D6
:101A30002F9B0C2B40F087812A68924B9A4240F0F2
:101A40008281AA68904B9A4240F07D816B6805F1D3
:101A5000040A0833079353468DF824008DF8640078
:101A60000646834605908146804682461F46AEE084
:101A70002046294608222FAB01F0F2FF002840F053
:101A800062812F9B082B40F05E813E682B687F4A65
:101A90000136934226F0010648D004D87C4A93428E
:101AA00040F0518107E07B4A934237D07A4A934213
:101AB00040F049812CE0A6F11003B3F5767F00F2E7
:101AC00042812046294632462FAB01F0C9FF00284B
:101AD00040F039812F9B9E4240F035812B88012BAD
:101AE00040F03181B5F802B0EB89BBF1020F18BFAD
:101AF0004FF0010B14BF4FF000094FF00109102BFC
:101B000004BF49F002094FEA4B0BD7F800805EE0B2
:101B100061692046711802F042FA58E06169204676
:101B20000591711802F03BFAB24650E06269204616
:101B30000492294604222FAB01F092FF002840F0C6
:101B400002812F9B042B40F0FE80049B2A68F6182C
:101B5000524B04969A422ED032E020462946082263
:101B60002FAB01F07DFF002840F0ED802F9B082B6C
:101B700040F0E9803E682B68494A0136934226F0DE
:101B8000010600F0E580474A93420CD1E2E020468E
:101B900032462FAB01F064FF002840F0D4802F9B29
:101BA000B34208D0CFE061692046711802F0F7F91E
:101BB000002840F0C880636904998B42CDD306E0C9
:101BC0002046049902F0EBF9002840F0BC806369DC
:101BD000079A9342FFF44CAF57464646002F00F059
:101BE000B280002E00F0AF802046059902F0D7F9B0
:101BF0008246002840F0A7802B4809A919AA00F0C6
:101C0000BDF909F0020ECDF810E02849DFF8A4E094
:101C100009F00100B7FBF8F8002818BF7146B8FBBF
:101C2000FBF83C200091B8FBF0F1019100FB118121
:101C300064220A23B6FBF2F2DDF810E0B2FBF3FCFB
:101C400002914FF47A711A48B6FBF1F103FB1C22A2
:101C5000BEF1000F0CBF0823102300F08FF9069986
:101C600029A82E913146CDF8A4902D95FFF71AFEA4
:101C7000002868D0069AB1465208049255E000BF89
:101C8000345C000052494646574156454C4953542E
:101C9000666D74206461746166616374494E464F79
:101CA000494E414D49415254425C00002F5C0000B6
:101CB000535C0000285C00002C9BDDF810E07345AD
:101CC00018D87646B74238BF3E462FAB204605EBC4
:101CD0000A01324601F0C4FE2F9BB3422BD1069974
:101CE0009A444A1EFF1A0AEA020A72B62C9AD318BC
:101CF0002C9362B6FFF76AFC18B1FFF76DFC07463C
:101D00001AE06669059A2C9BB61AF61AB6FBF9F624
:101D1000B6FBFBF6464508D03C22B6FBF2F1104874
:101D200002FB116200F02AF9B046002FC4D12C9BAF
:101D3000032BDFD800E00027FFF736FE0A2000F073
:101D400011F8384601E04FF0FF3031B0BDE8F08FB8
:101D500019A900E009A9402E3FF625AF17E700BFFB
:101D60007C5C00000A2810B5044602D10D20FFF764
:101D7000F9FF064A13681BB103F8014B136010BD4D
:101D8000034B1B680BB12046984710BD1C01001087
:101D90001449001010B5044601E0FFF7E3FF14F802
:101DA000010B0028F9D110BD2DE9FF4704460D466F
:101DB00000E03D462078002800F0CD800134252841
:101DC00068D114F8010B302803D114F8010B012657
:101DD00006E02D2803D114F8010B022600E00026AE
:101DE0004FF0000906E00A2303FB090914F8010B70
:101DF000A9F13009A0F13003DBB2092BF3D96C282B
:101E000001D04C2803D114F8010B46F00406002839
:101E100000F0A180602886BFA0F12003DBB203465A
:101E20004F2B3DD006D8432B2DD0442B09D0422B2D
:101E300030D133E0552B04D0582B29D0532B29D146
:101E400001E00A212DE02F1DD5F80080002500E0DB
:101E5000013518F80530002BFAD102E02020FFF7F9
:101E600081FF16F0020F03D101356B1E4B45F5D3F0
:101E70004046FFF78FFF03E02020FFF773FF013597
:101E80004D45F9D395E728782F1DFFF76BFF90E7B5
:101E9000102106E0FFF766FF2F468AE7022100E0E7
:101EA000082116F0040F05F1040702D02A68442B1C
:101EB00001E02A68442B04D1002A02DA524246F09B
:101EC00008060025B2FBF1FE01FB1E22D3B2092B4E
:101ED000724607D9782814BF4FF0070C4FF0270C33
:101EE0006344DBB230330DF805300135BEF1000F2D
:101EF00001D0102DE6D116F0080F05D004AA531911
:101F00002D2203F8102C013506F0010ABAF1000F5A
:101F10000CBF4FF0200A4FF0300AA84602E05046AE
:101F2000FFF720FF16F0020F05D108F1010808F1B4
:101F3000FF334B45F3D3013D1DF80500FFF712FFBA
:101F4000002DF8D104E02020FFF70CFF08F1010874
:101F5000C845F8D32DE7BDE8FF87074B70B51C686F
:101F60000D4618601E4601E0FFF7FCFE15F8010B58
:101F70000028F9D1346070BD144900100FB407B5C2
:101F800004A951F8040B0191FFF70EFFBDE80E40C4
:101F900004B070470EB417B505A951F8043B074CBF
:101FA000019120601846FFF7FFFE2268002313709E
:101FB0002360BDE81E4003B0704700BF1C01001045
:101FC0000EB433B5074C05A951F8043B25682060D1
:101FD00018460191FFF7E8FE2560BDE83C4003B0DC
:101FE000704700BF1449001070B51E4604461E48D5
:101FF0001546FFF7C3FF022E20D0042E26D0012E57
:102000002BD105E0A15D1948FFF7B8FF013600E0CC
:102010000026AE42F6DB2020FFF7A4FE00260AE0F1
:10202000A35D0136A3F12000C0B25E2894BF18461C
:102030002E20FFF797FEAE42F2DB0EE00C4834F89C
:10204000021BFFF79BFF013DF8D106E0094854F859
:10205000041BFFF793FF013DF8D10D20FFF782FE2F
:102060000A20BDE870407DE68A5C0000915C0000BB
:10207000975C00009D5C0000F8B5124F044638687C
:102080000E46F0B100253B689847D0B10D280FD01F
:10209000082803D1002DF6D0013D06E01F28F2DD0F
:1020A000721E9542EFDA60550135FFF75BFEEAE7F5
:1020B00000236355FFF756FE0A20FFF753FE012069
:1020C000F8BDF8BD1049001038B5044C25682060F3
:1020D00008461146FFF7D0FF256038BD10490010B3
:1020E000002370B50B6001E00132026002681378D2
:1020F000202BF9D02D2B04D1531C036053780125DC
:1021000000E00025302B1AD103685A1C02605B786E
:10211000622B06D0782B09D1531C0360537810240E
:1021200013E0531C0360537802240EE0202B25D9C2
:10213000A3F13002D2B2092A22D8082405E0A3F183
:102140003002D2B2092A1BD80A24002211E0602BE7
:1021500001D9203BDBB2303BDBB2102B01D9073B6E
:10216000DBB2A3420ED204FB023203685E1C06609F
:102170005B78202BEBD805B152420A60012070BD7C
:10218000002070BD002070BD054B1860054B1B681A
:1021900013F0100FFAD1024B1868C0B2704700BF9D
:1021A000080003400C00034010B5084C2060FF20DD
:1021B000FFF7EAFFFF2802D02368002BF7D1A0F138
:1021C000FF03584240EB030010BD00BF2001001088
:1021D000024B4022FF201A70D6E700BF18C009202A
:1021E000094B402210B5FF201A70FFF7CDFF4FF4C6
:1021F000FA70FFF7D9FF044618B9FFF7E9FF204648
:1022000010BD012010BD00BF1CC0092070B52C4EB0
:10221000C82304460D467360FF20FFF7B5FFFF2873
:1022200003D170680028F7D170BDFE2846D1254B38
:10223000103D1A6842F00F021A604FF6FF729A6062
:102240009A609A609A609A609A609A609A602A4648
:1022500023460FE0023A1C49096811F0040FFAD036
:102260001A484FF6FF760168066089B2080A1870AE
:1022700059700233012AEDD825F0010564190023B5
:10228000114A126812F0040FFAD0104A126892B282
:10229000110AE154E1180233102B4A70F0D1094AB7
:1022A0004FF6F7731168FF2001EA03031360FFF78D
:1022B0006BFFFF20FFF768FF012070BD002070BD9D
:1022C00020010010000003400C0003400800034000
:1022D00010F0800F38B504460D4607D03720002196
:1022E000FFF7F6FF012835D804F07F040C2C04D04A
:1022F000FFF76EFFFFF774FF58B344F04000FFF79D
:1023000043FF280EFFF740FF280CC0B2FFF73CFF49
:10231000280AC0B2FFF738FFE8B2FFF735FF24B153
:10232000082C0CBF8720012000E09520FFF72CFF30
:102330000C2C02D1FF20FFF727FF0A24FF20FFF714
:1023400023FF10F0800F05D0013CE4B2002CF5D142
:1023500038BDFF2038BD38B504464FF4FA700D463D
:10236000FFF722FF002849D02846FFF70DFFFD2D7B
:1023700043D0234B1A6842F00F021A600023E21880
:10238000E15C5278023342EA01211E4A102B1160AF
:10239000F5D104F5F872217C637C43EA01211A4BE4
:1023A0001B6813F0040FFAD0164B023494421868DD
:1023B0001960F0D10023144A126812F0040FFAD009
:1023C000104A0133082B1268F5D10D4A4FF6F77306
:1023D0001168FF2001EA03031360FFF7D5FEFF2019
:1023E000FFF7D2FEFF20FFF7CFFE00F01F00A0F1A5
:1023F0000502504240EB020038BD012038BD00BF4D
:1024000000000340080003400C000340F7B500281B
:1024100040F0C680634B07211A68634D42F4806226
:102420001A60D3F8E42022F4401242F40012C3F8F8
:10243000E4205E4A0223136042F8101C42F80C3C70
:102440005B4B1A6822F4404242F400421A601A6858
:1024500022F4403242F400321A601A6822F4402218
:1024600042F400221A60534B1A6842F040021A608C
:1024700040221A760A236B606B68002BFCD14E4B0E
:102480001A781E4612F0020F01D0187889E04B4BE3
:102490000A241A6802F0FF0242F474521A60013CE6
:1024A000FF20E4B2FFF770FE002CF8D12046214651
:1024B000FFF70EFF012807465DD14FF47A7308201D
:1024C0004FF4D5716B60FFF703FF012833D1FF2074
:1024D000FFF75AFE01AB18550134042CF7D19DF8D3
:1024E0000630012B44D19DF80730AA2B40D16B68F0
:1024F00033B1A9204FF08041FFF7EAFE0028F6D162
:102500006C68002C37D03A200021FFF7E1FE00284C
:102510002ED10446FF20FFF737FE01AB18550134DA
:10252000042CF7D19DF8044004F04004002C0CBFAB
:1025300004240C241FE0A9202146FFF7C9FE01282E
:1025400002D80224A92700E03C466B682BB138462C
:102550000021FFF7BDFE0028F7D16B6853B11020B2
:102560004FF40071FFF7B4FE002818BF002402E00A
:10257000002400E01C462C72FFF72AFE44B10F4BEA
:102580001A6802F0FF021A60337803F0FE0304E0D9
:10259000FFF726FEFFF71CFE01233370307800E0C2
:1025A0000120FEBDC4C00F402001001010000340F8
:1025B00000C0024000C009200000001000000340DD
:1025C00010B9024B187870470120704700000010C6
:1025D00070B50C461D4600282CD1002B2AD0174B75
:1025E0001B7813F0010F27D1154B1B7A13F0080F3E
:1025F00008BF5202012D94BF112612263046114603
:10260000FFF766FE80B920464FF40071FFF7FEFD2C
:1026100020B1013D02D004F50074F4E7122E03D17D
:102620000C200021FFF754FEFFF7D2FD281E18BF33
:10263000012070BD042070BD032070BD000000109B
:102640002001001070B50C4615461E46002843D1E7
:10265000002B41D0234B1A7812F0010F3ED11B788A
:1026600013F0040F3CD1204B1B7A13F0080F08BF66
:102670006D02012E0DD118202946FFF729FE28BB37
:10268000FE212046FFF767FED0F1010638BF002685
:102690001CE013F0060F03D097203146FFF718FE19
:1026A00019202946FFF714FE80B92046FC21FFF7C8
:1026B00052FE20B1013E02D004F50074F5E700207F
:1026C000FD21FFF748FE002808BF0126FFF780FD27
:1026D000301E18BF012070BD042070BD032070BDE6
:1026E000022070BD00000010200100107FB50D46D3
:1026F0001446002840F018818E4B197811F0010122
:1027000040F01481322D00F0DB8008D8012D15D067
:1027100011D3032D50D0042D40F0FE809FE0342DC6
:1027200000F0D580C0F0D180352D00F0D780362D57
:1027300040F0F280E0E0FFF753FDE8E00920FFF70A
:10274000C7FD0646002840F0E98068461021FFF7E3
:102750005DFD002800F0E2809DF800309DF8072024
:102760009B09012B9DF808300AD102F03F029DF829
:10277000091012041B0201325B18D3189B026CE093
:102780009DF80610920002EB931301F003018902F9
:1027900001339DF805205B189DF80A1002F00F0226
:1027A00002EBD1129DF80910023201F0030102EB95
:1027B000410109398B4050E05F4B1E7A16F004034B
:1027C0001ED08D20FFF784FD002840F0A980FF3047
:1027D000FFF7DAFC68461021FFF718FD002800F02B
:1027E0009F803026013EFF20F6B2FFF7CDFC002E81
:1027F000F8D19DF80A3010221B0912FA03F32CE0DD
:1028000009201946FFF764FD002840F089806846DA
:102810001021FFF7FBFC002800F0828016F0020672
:102820009DF80A209DF80B300CD09DF80D10DB09A7
:10283000013302F03F02890903EB420201398A4069
:10284000226057E0590902F07C029208013103F03E
:102850000303013201EBC3035343236061E0364BB2
:102860001D7A15F0060F5BD033216A46FFF73EFF55
:10287000002855D19DF800309B0904D19DF80A30FD
:1028800013F0400F4CD015F0080F2168646801D197
:10289000490264022020FFF71BFD002840D1214699
:1028A0002130FFF715FD0146002839D12620FFF71A
:1028B0000FFD002834D147F23050FFF775FC26E0B9
:1028C0001D4B0E461B7A13702BE0092000E00A20F6
:1028D000FFF7FEFC20BB2046102116E03A20FFF750
:1028E000F7FCE8B90546FF20FFF74EFC60550135BF
:1028F000042DF8D1002614E08D20FFF7E9FC78B90B
:10290000FF30FFF741FC20464021FFF77FFCD0F16C
:10291000010638BF002604E0042602E02E4600E04F
:102920000126FFF755FC02E0042600E003263046AE
:1029300004B070BD00000010200100100E4B5A685A
:1029400092B212B1013A92B25A601B689BB21BB1AB
:10295000013B094A9BB21360084A09491378097878
:1029600003F0FB0311F0020F0CBF03F0F90343F077
:1029700003031370704700BF200100100000001017
:1029800055C009204278037843EA022070478378D3
:10299000C27843EA0222437843EA0222037843EAF8
:1029A000022070470170090A4170704703460A0A05
:1029B00003F8011B42700A0C090E5A709970704797
:1029C0002AB111F8013B013A00F8013BF9D17047F7
:1029D000013A00F8011BFBD1704710B5034613F80C
:1029E000014B11F8010B013AC0EB040001D00028A3
:1029F000F5D010BD10F8013B0BB18B42FAD118464F
:102A00007047802808D99F2808D9DF2808D9FC28D2
:102A10008CBF0020012070470020704701207047C4
:102A2000002070473F2808D97E2808D97F2808D081
:102A3000FC288CBF00200120704700207047012037
:102A400070470020704783690239023B994204D2E3
:102A50004289C36A02FB013070470020704700239F
:102A600070B54B7282690C464AB31A46C169895CDB
:102A7000013220290BD0052908BFE521092A03D1FD
:102A8000E5182E266E720133E518697201330B2AA0
:102A9000ECD10B3AE3185A72C369DB7A2372C56929
:102AA00005F11C00FFF773FF206005F11600FFF72A
:102AB00069FFE08005F11800FFF764FFA08070BD9A
:102AC000F8B5076806463D4615F8014BA4F16103C9
:102AD000192B98BF203C0560E0B2FFF792FF50B180
:102AE0007F783846FFF79EFF20B1013547EA04247E
:102AF000356000E004462046F8BDF0B585B00546D7
:102B000001911C46174605E001A8FFF7D9FF013FD8
:102B1000002840D0002FF7D12B780BB9002C37D1EB
:102B2000019B03950293039B1B783F2B03D02A2B19
:102B300019D12A3B00E000231A460399084610F8F1
:102B4000016B3F2E039001D1013200E0012349784F
:102B50003F29F2D02A29F0D00299FFF7CEFFB8B969
:102B6000029B1E780CE003A8FFF7AAFF074602A805
:102B7000FFF7A6FF8742064602D1002FD3D107E018
:102B800001A8FFF79DFF2CB1002EC9D1304602E00D
:102B9000012000E0204605B0F0BD036810B5DBB1B0
:102BA0001A4612F8011B202902D93A29F9D10DE061
:102BB0000B4B187810BD023393420DD1302902D14E
:102BC0000260002010BD4FF0FF3010BD1978A1F158
:102BD0003004E4B2092CEED94FF0FF3010BD00BF35
:102BE0002C01001070B5C5780446DDB100F1340643
:102BF00031464078226B0123FFF724FD054680B95A
:102C0000236B616AE269591A9142E0700AD2A17895
:102C1000022907D1D218607831460123FFF712FD4F
:102C200000E00125284670BDF8B504460E46FFF7C2
:102C3000D9FF0546F8B931462046FFF704FF04F1F5
:102C4000340607462063294630464FF40072FFF7EA
:102C5000BFFE00E0013563899D4207D260783146AE
:102C6000EA190123FFF7EEFC0028F3D06089281A47
:102C700018BF0120F8BD0120F8BDF8B50446FFF7E4
:102C8000B1FF0546002D38D12378032B2DD12779AC
:102C9000012F2AD104F134064FF400723046294640
:102CA000FFF796FE04F50C7002304AF65521FFF747
:102CB00079FE30461149FFF779FE04F50670104998
:102CC000FFF774FE04F507702169FFF76FFE04F546
:102CD0000870E168FFF76AFE226A607801322263B9
:102CE00031463B46FFF7AEFC2571002160780A466D
:102CF000FFF7FCFC003818BF0120F8BD52526141BB
:102D00007272416138B50D46044668B103685BB123
:102D10001A784AB18188DA88914205D15878FFF74C
:102D20004FFC10F0010003D0092000232B6038BDB8
:102D30002368FBE738B5036B054699420C4612D071
:102D4000FFF750FF80B922460123687805F134016E
:102D5000FFF73EFC002818BF4FF0FF340CBF0020E7
:102D600001202C6338BD002038BD002310B5C3708E
:102D7000013B03630446FFF7DDFF10BB04F50C7055
:102D80000230FFF7FFFD4AF6552398421BD194F815
:102D90003430E92B03D0EB2B01D0E82B15D104F113
:102DA0006A000B490322FFF718FE78B104F1860090
:102DB00008490522FFF711FE002814BF0220002059
:102DC00010BD042010BD032010BD022010BD00BFA7
:102DD000245C00001C5C00002DE9F04F002385B04E
:102DE0000B600D469046FFF7D8FE061EC0F22F81FD
:102DF0009F4F07EB86035C68002C00F02A812C6053
:102E0000237808F0FE056BB16078FFF7D9FB10F06E
:102E1000010F07D1002D00F01E8110F0040018BF33
:102E20000A2021E10023F0B223706070FFF7EEFA70
:102E300010F0010F40F011811DB110F0040F40F0AF
:102E40000E8100212046FFF790FF022822D1ADF12C
:102E500004064FF4DF7505F13003E318187A18B152
:102E600003F10C00FFF793FD1035B5F5FF7F46F831
:102E7000040FF0D100265DF8065035B120462946F2
:102E8000FFF773FF012801D80BE003200436102E52
:102E9000F1D100E00025042800F0E380012800F2D1
:102EA000E28004F13F00FFF76DFDB0F5007F40F0D8
:102EB000DA8004F14A00FFF765FD804620B904F18D
:102EC0005800FFF764FD804694F844B0C4F81C80B5
:102ED0000BF1FF33DBB2012B84F802B000F2C380A8
:102EE00094F841606681002E00F0BD80731E33426D
:102EF00040F0B98004F14500FFF744FD10F00F0FDA
:102F00008246208140F0AF8004F14700FFF73AFD90
:102F1000814620B904F15400FFF739FD814604F1E0
:102F20004200FFF72FFD002800F09D800BFB08FBFF
:102F30000BEB1A131B189945C0F09580C3EB0909D8
:102F4000B9FBF6F2002A00F08E804A498A4200F26C
:102F50008A804FF6F5718A4206D840F6F576B2427D
:102F600094BF0126022600E0032602F1020940195F
:102F70005B19032EC4F8189025626062E36210D1D9
:102F800004F15E00FFF7FEFC00286CD1BAF1000FDF
:102F900069D104F16000FFF7FAFC4FEA8909A062E9
:102FA00010E0BAF1000F5ED0022E4FEA490318BFBD
:102FB0004B44584418BF09F00109A0620CBF994660
:102FC00009EB530909F5FE7909F10309B8EB592F0B
:102FD00049D34FF0FF332361E3608133032E237124
:102FE0002CD104F16400FFF7CDFC012826D1204646
:102FF000691CFFF79FFE08BB207104F50C700230BE
:10300000FFF7C0FC4AF65523984217D104F134006B
:10301000FFF7BDFC184B984210D104F50670FFF77E
:10302000B6FC164B984209D104F50770FFF7AFFCC8
:10303000206104F50870FFF7AAFCE06026703B8968
:10304000002001339BB23B81E38060610CE00B20E8
:103050000AE00C2008E0284606E0032004E00A20ED
:1030600002E0012000E00D2005B0BDE8F08F00BFB8
:103070002C010010F5FFFF0F525261417272416145
:1030800001292DE9F04104460D46174672D983699E
:1030900099426FD20378022B44D0032B51D0012BDD
:1030A00068D101EB5108416A01EB5821FFF742FE5C
:1030B000064600285FD14FEAC853DB0D15F0010525
:1030C00008F10108FAB207D0E11891F8341001F0C4
:1030D0000F0141EA0212D2B2E318616A83F8342088
:1030E0000123E370204601EB5821FFF723FE06463B
:1030F000002840D14FEAC8584FEAD85815B13F09C7
:10310000FFB20AE004EB080393F834303F0A23F0DF
:103110000F0307F00F0743EA070704EB080383F8E0
:10312000347024E0416A01EB1521FFF703FE0646E7
:1031300008BB2D0604EBD5503430B9B2FFF732FC92
:1031400015E0416A01EBD511FFF7F4FD064690B991
:103150006D0604EBD55534352846FFF718FC27F0EB
:10316000704700F0704139432846FFF71FFC0123E8
:10317000E37000E002263046BDE8F08138B505680E
:103180000446A1692846FFF7D5FD20B9E369E52289
:103190001A700123EB7038BD70B5044601F11A00B6
:1031A0000E46FFF7EFFB032C054605D106F1140090
:1031B000FFF7E8FB45EA0045284670BD70B50546B7
:1031C0000C4601F11A0091B21646FFF7EBFB2B7883
:1031D000032B06D104F11400310CBDE87040FFF759
:1031E000E1BB70BD0129F8B504460D464DD9836990
:1031F00099424AD20378022B29D0032B35D0012BD8
:1032000043D101EB5106416A01EB5621FFF792FDD4
:1032100000283CD1F305616ADB0D0136E318204636
:1032200001EB562193F83470FFF784FD00282ED16E
:10323000F605F60DA61996F8340015F0010F47EAC9
:10324000002001D00009F8BD0005000DF8BD416A5D
:1032500001EB1521FFF76EFDC8B92D0604EBD5541F
:1032600004F13400FFF78EFBF8BD416A01EBD51184
:10327000FFF760FD70B96D0604EBD55404F134001E
:10328000FFF785FB20F07040F8BD0120F8BD4FF03E
:10329000FF30F8BD4FF0FF30F8BDB1F5001F2DE94C
:1032A000F04104460D4607683ED211F01F0F3BD196
:1032B0008668216166B93B78022B01D9BB6A33B9B4
:1032C0003B89B3EB551F2FD9BB6AA3611BE01E4698
:1032D000B7F80A804FEA48280EE031462068FFF729
:1032E00081FFB0F1FF3F06461BD001281CD9BB6906
:1032F000984219D2C8EB05054545EED2384631460D
:10330000FFF7A1FBA061A369666183B103EB5523BD
:10331000ED05ED0D7D193435A361E5610020BDE8B3
:10332000F0810120BDE8F0810220BDE8F08102209B
:10333000BDE8F0812DE9F041804604680E4631B9C0
:10334000E7688FB1A3699F4228BF01270DE020469F
:10335000FFF748FF012860D9B0F1FF3F64D0A369AF
:10336000984261D3374600E00127206900285BD0EE
:10337000B74218D1A3697D1C9D4228BF0225D8F809
:1033800000002946FFF72EFF01284DD0B0F1FF3F86
:103390004AD038B1E368012B05D9A269934238BFFE
:1033A0001F4600E0ADB93D46A36901359D4202D3F9
:1033B000012F35D90225D8F800002946FFF712FF62
:1033C00038B1012830D0B0F1FF3F2DD0BD42EBD154
:1033D00029E0204629464FF0FF32FFF751FEA8B9F9
:1033E0002EB1204631462A46FFF74AFE70B9A2693F
:1033F0002369023A9342E56001D8013B23612379B6
:10340000284643F001032371BDE8F081012814BF71
:1034100001204FF0FF30BDE8F0810120BDE8F081D0
:103420000020BDE8F0810020BDE8F0812DE9F843DF
:10343000076904462037B7F5001F8946066801D39F
:1034400000238361A369002B44D04FEAC7584FEA99
:10345000D858B8F1000F36D161690133A36129B999
:103460003389B3EB571F2ED8A16133E07389013B39
:1034700013EA572327D13046FFF7B4FE012805464B
:103480002ED9B0F1FF3F2ED0B369984215D3B9F1D0
:10349000000F02D1C4F818901CE020466169FFF7C4
:1034A00049FF0546C8B101281AD0B0F1FF3F1AD034
:1034B00030462946FFF7B8FBC0B96561304629465A
:1034C000FFF7C1FAA061464434362761E661002067
:1034D000BDE8F8830420BDE8F8830720BDE8F88341
:1034E0000220BDE8F8830120BDE8F8830120BDE893
:1034F000F88370B5042304460E4605681FE028468D
:10350000FFF718FC28BBE3691A780AB3DB7AE52ACF
:1035100003F03F03A3710CD02E2A0AD00F2B08D042
:1035200023F02003A3F10802534243EB0203B3420A
:103530000DD020460021FFF779FF034648B9A16965
:103540000029DCD1184613B10022A261184670BDD3
:1035500004200346F8E72DE9F14F0B7804462F2BA2
:103560000E46076801D05C2B01D1334601E07B6930
:1035700007E01A781E4601332F2AFAD05C2AF8D0C9
:103580000023A36033781F2B08D880232046002116
:1035900084F82B3001B0BDE8F04F7EE620210B22ED
:1035A00004F12000FFF714FA33782E2B05D04FF0EA
:1035B0000008C1464FF0080A19E084F820307378FB
:1035C0002E2B04D184F82130B378032200E00222AC
:1035D0002F2B04D05C2B02D0202B00F2B380202BA9
:1035E0008CBF20232423B61884F82B30B1E016F8C2
:1035F000095009F10109202D4DD92F2D04D05C2D42
:1036000009D101E009F1010916F809302F2BF9D091
:103610005C2BF7D03FE02E2D01D0D0450BD3BAF173
:103620000B0F00F08F802E2D40F08C804FF008089B
:103630004FF00B0ADBE72846FFF7E3F9B8B116F8BD
:1036400009B05846FFF7EEF900287BD00AF1FF33A6
:10365000984577D204EB080308F1010883F820505D
:1036600004EB080309F1010983F820B010E03E489B
:103670002946FFF7BFF9002864D1A5F16103DBB249
:10368000192B01D8203DEDB204EB080383F820503C
:1036900008F10108ABE7B8F1000F53D094F82030DF
:1036A000E52B02D1E03B84F82030202D94BF042587
:1036B00000254E4484F82B504BE04046A169FFF7AB
:1036C00039FB0546B0B9E069037893B1C37A03F0DA
:1036D0003F03A371C37A13F0080F05D104F1200151
:1036E0000B22FFF77AF928B120460021FFF79EFE52
:1036F00035E0042594F82B309DB1042D25D113F02D
:10370000200F03F0040507D0002D3FF447AF8023BE
:1037100084F82B30002518E0002D14BF0425052562
:1037200013E013F0040F10D1A37913F0100F0BD096
:1037300021693878C905C90D79183431FFF72CFD96
:10374000A0602BE7062500E00525284601B0BDE86E
:10375000F08F20460021D4F80080FFF79EFD05463B
:103760000028AAD0C6E700BFDC5C00000129F8B53C
:1037700007460E4604682CD9A369994229D242B162
:10378000114620464FF0FF32FFF77AFC08B1F8BD32
:103790002E4638683146FFF725FD0546C0B10128A1
:1037A00017D0B0F1FF3F16D0204631460022FFF778
:1037B00067FC88B9A3692269991E8A4205D2013241
:1037C0002261227942F0010222719D42E0D3F8BDCC
:1037D000F8BD0220F8BD0120F8BD38B5002104462F
:1037E0000568FFF75AFD70B92846A169FFF7A2FAEC
:1037F00048B9E3691B78E52B08D03BB1204601218D
:10380000FFF714FEEFE7042808BF072038BD70B5A6
:1038100005460668FFF7E1FF044690B93046A969FE
:10382000FFF788FA044660B9E86921462022FFF7CD
:10383000CFF8E86905F120010B22FFF7C1F8012359
:10384000F370204670BD1FB5019004A840F8041D18
:1038500000911446FFF7A1F9002814DB0C4A02EB93
:1038600080035B680BB100211970019B0BB1002133
:10387000197002EB800043603CB1684601A9002248
:10388000FFF7AAFA02E00B2000E0204604B010BDCA
:103890002C0100102DE9F04190B001910446002860
:1038A00000F0D38002F03F0601A80FA93246FFF7CF
:1038B00093FA0546002840F0C5800F9B10A840F8F9
:1038C000343D0199FFF747FE28B99DF9373030EABA
:1038D000230028BF062016F01C0F49D048B1042849
:1038E0007BD103A8FFF793FF002876D146F00806A6
:1038F00009E09DF8123013F0110F40F0AF8016F080
:10390000040F40F0A78016F0080F3ED00F9BDDF8A3
:10391000288018784146FFF73FFC0746FCF760FD1A
:10392000014608F10E00FFF741F80A9B2022DA72E7
:103930000F98203A0A99FFF741FC0A9800211C30A1
:10394000FFF734F80F9B0122DA70F7B103A839466C
:10395000013AD3F83080FFF709FF00283DD10F98D6
:103960004146FFF7E7F90F9B013FDF6068B134E0A4
:10397000002832D19DF8123013F0100F6CD116F0E0
:10398000020F02D013F0010F68D10F9FDDF82880DD
:103990003B6BC4F824802362387816F0080F414648
:1039A00018BF46F04006FFF7F7FBA06008F11C00C7
:1039B000FEF7EDFF2760FF880021E060A7802674F6
:1039C0006174E161616104F128004FF40072FEF757
:1039D000FFFF16F0200F02D138E0054632E0E6681E
:1039E000002E33D00F9B66615F89A1687F020EE0D5
:1039F0002068FFF7F7FB0128014605D9A0F1FF3049
:103A0000434243EB000300E00223F61B13B9BE421E
:103A1000EED800E01D46A161A5B9F305DB0DABB101
:103A20000F9F3846FFF70FF858B100EB5622E261BE
:103A3000787804F128010123FEF7CAFD30B1013581
:103A400000E002250023236000E00925284610B08D
:103A5000BDE8F0810820C0E70420BEE70720BCE7EE
:103A60002DE9F04F9A4685B000238846CAF8003009
:103A700003A904461646FFF745F90546002840F01D
:103A80009D80657C002D40F09980237C13F0010F10
:103A900000F09380E2686369C3EB02094E4538BFCA
:103AA000B14685E06269D305DB0D002B66D1039B2F
:103AB0005B89013B13EA52230ED10AB9A06805E0E5
:103AC0002068A1690193FFF78DFB019B01280CD9A8
:103AD000B0F1FF3F4ED0A061DDF80CB0A1695846AF
:103AE0000193FEF7B0FF019B08B9022543E05FEAAE
:103AF000592700EB030621D0BBF80A20F9189142A0
:103B000088BFC3EB02079BF80100414632463B46A3
:103B1000FEF75EFD70BB94F91030002B0CDAE36900
:103B20009E1BBE4208D2760208EB060004F1280173
:103B30004FF40072FEF744FF7F022EE0E269B242CA
:103B40001BD094F91030002B0BDA9BF8010004F124
:103B500028010123FEF776FD60B9237C03F07F0383
:103B60002374039B04F12801587832460123FEF7A1
:103B70002FFD10B10125657420E0E661636904F151
:103B80002801DB05DB0DC3F50077B94538BF4F468B
:103B90004046C9183A46FEF713FFDAF80030C7EB83
:103BA0000909DB19CAF800306369B844DF19676195
:103BB000B9F1000F7FF476AF00E00725284605B085
:103BC000BDE8F08F2DE9F04F9A4685B00023894675
:103BD000CAF8003003A904461646FFF793F80546D5
:103BE000002840F0B580657C002D40F0B180237C3A
:103BF00013F0020F00F0AB806369DE42C0F09F80DB
:103C0000DE439CE06369DA05D20D002A75D1039A80
:103C10005289013A12EA5322019215D11BB9A168C7
:103C200049B9204601E0A1692046FFF783FB014620
:103C3000002800F0878001291FD0B1F1FF3F57D045
:103C4000A368A16103B9A16094F91030002B0DDACB
:103C5000039B04F128015878E2690123FEF7F2FC86
:103C6000002845D1237C03F07F032374DDF80CB0DA
:103C7000A1695846FEF7E7FE08B9022539E0019927
:103C8000770A00EB010823D0BBF80A307A189A4271
:103C900088BFC1EB03079BF80100494642463B46FB
:103CA000FEF7D0FC20BBE369C8EB0308B8450DD292
:103CB0004FEA482804F1280009EB08014FF400728C
:103CC000FEF77EFE237C03F07F0323747F0227E050
:103CD000E36943450FD06269E3689A420BD29BF8CF
:103CE000010004F1280142460123FEF771FC10B1E6
:103CF000012565742CE0C4F81C80636904F1280078
:103D0000DB05DB0DC3F50077BE4238BF3746C01870
:103D100049463A46FEF754FE237C63F07F03237442
:103D2000DAF80030F61BDB19CAF800306369B944D1
:103D3000FF18E3686761BB422CBFE360E760002EB9
:103D40007FF460AF237C43F04003237400E0072539
:103D5000284605B0BDE8F08FF7B501A90446FEF787
:103D6000D1FF0546002842D1237C13F0400F3ED0FE
:103D700013F0800F0DD0019B04F128015878E269FF
:103D80000123FEF75FFC002830D1237C03F07F0382
:103D90002374FCF725FB216A07460198FEF7CAFF4A
:103DA000054620BB666AF37A314643F02003F3727E
:103DB000A2682068FFF702FA06F11C00E168FEF72E
:103DC000F5FD06F116003946FEF7F0FD294606F12D
:103DD0001200FEF7E7FD01980123C370FEF74DFFC7
:103DE000237C054623F04003237400E00125284688
:103DF000FEBD13B50446FFF7AFFF28B9204601A961
:103E0000FEF780FF00B920601CBD07B502AB43F888
:103E1000040D1846FEF7C1FE002803DB024B1870A4
:103E2000002000E00B200EBD2C01001030B591B039
:103E300010AB43F83C0D18460FA90022FEF7CCFF4B
:103E40000446F8B90F9B10A840F8343D0199FFF7DC
:103E500082FB044698B99DF93730002B03DA059AA6
:103E60000F9B5A610EE09DF8123013F0100F0CD02A
:103E70000F9D0A992878FFF78FF9686102E00428FE
:103E800008BF0524204611B030BD0524FAE72DE90E
:103E9000F04397B016AB43F8540D002202700D4664
:103EA000044615A91846FEF797FF804600286DD1F5
:103EB000159B2F4603935B69059353E003A82021CC
:103EC000FFF7EBF90646002867D115980999FEF728
:103ED00031FF0646002860D1159B0A991878FFF734
:103EE0005BF93146059003A8FFF7D7F9064600288D
:103EF00053D103A80021FFF7FCFA064668B9159BC9
:103F00000A991878FFF748F981450AD0314603A885
:103F1000FFF78CFA06460028EBD0042E08BF0226D5
:103F20003BE003A80FA9FEF79AFD11AA00E01E4688
:103F300012F8011F731C0029F9D19F4231462BD37F
:103F40003B4608E0013E0DF1580C0CEB060010F862
:103F5000130C013BD054019A002EF3D1CB43FF1830
:103F60002F23D355DDF81490B9F1000FA6D1AF423D
:103F700003D1019B013F2F22DA552346019AD25DDE
:103F8000013703F8012BAF421C46F7D300232370FF
:103F9000404617B0BDE8F0831126B046F6E72DE99C
:103FA000F3410F4601A90446FEF7ACFE0546002882
:103FB00040F09980657C002D40F09580E3689F4239
:103FC00005D9227C02F00202002A08BF1F46002207
:103FD00063696261002F58D0019AB2F80A804FEAF3
:103FE00048287BB1013B791EB1FBF8F1B3FBF8F235
:103FF000914207D3C8F1000202EA03036361FF1A8A
:10400000A1690FE0A16861B92046FFF793F9012883
:10401000014635D0B0F1FF3F02D10125657462E061
:10402000A060A161002932D01CE063694344636150
:10403000237C13F0020F05D02046FFF77BF90146E1
:1040400020B912E02068FFF7CDF80146B1F1FF3F3B
:10405000E3D0012914D9019B9B69994210D2C8EB86
:104060000707A1614745E0D800E007466369FE0500
:10407000DB19F60D63615EB10198FEF7E4FC08B947
:104080000225CBE700EB572602E03E4600E00E4655
:104090006369E268934204D9227CE36042F0400203
:1040A0002274DB05DB0DF3B1E26996421BD094F973
:1040B0001030002B0CDA019B04F128015878012301
:1040C000FEF7C0FA0028A8D1237C03F07F032374F5
:1040D000019B04F12801587832460123FEF778FA53
:1040E00000289AD1E6612846BDE8FC811FB5044648
:1040F0000191002829D001A803A90022FEF76CFE37
:1041000000BB039B204623600199FFF724FAA0B966
:1041100094F92B30002B09DBA37913F0100F10D08A
:10412000039BE1691878FFF737F8A060039B2046EE
:10413000DB880021A380FFF7B0F8042801D028B164
:1041400000E005200023236000E0092004B010BD3A
:1041500013B501A90446FEF7D5FD00B920601CBDCA
:1041600037B50D4601A90446FEF7CCFD0146C0B99E
:104170001DB92046FFF791F812E02046FFF7B9F984
:10418000042800D060B920462946FEF768FC0021CB
:104190002046FFF74BF9042814BF0146002100E038
:1041A000014608463EBD70B506460D4630462946D6
:1041B000FFF7D6FF044658B955B16B7A43B1F06AA0
:1041C00005F1090122462346FEF797FC0028EDD0B1
:1041D000204670BD70B50D46C36211460446FFF718
:1041E00085FF20B920462946BDE87040DBE770BD59
:1041F00030B58FB00EAB43F8340D0C46184602A90B
:104200000022FEF7E9FD054680B902A80199FFF7F3
:10421000A2F9054650B99DF93330002B05DB2CB1CE
:1042200002A82146FEF71BFC00E0062528460FB039
:1042300030BD2DE9F04385B004AB43F80C0D0C46BE
:104240001546184603A90022FEF7C6FD06460028BB
:1042500057D1039FD7F818803B69A8F10202934217
:104260002F6001D823604CE03B78012B14D14FF034
:104270000208054638464146FEF7B4FFB0F1FF3F5D
:1042800033D0012833D000B90135039B08F1010870
:104290009B699845EED32DE0D7F824900546074654
:1042A00037B903984946FEF745FD10BB09F10109EE
:1042B000039B07F130001A78022A07D1181804303E
:1042C000FEF760FB00B90135023708E0181804302A
:1042D000FEF75DFB20F0704000B901350437B8F1FE
:1042E000010807D0FF05FF0DDAE7012602E00226EC
:1042F00000E00646039B25601A791D6142F0010229
:104300001A71304605B0BDE8F08373B501A90446C3
:10431000FEF7F8FC0546002843D1657C002D40D10E
:10432000237C13F0020F3BD06669E3689E4238D2CB
:104330003EB92A462046A168FFF718FAA66005464E
:1043400013E0A1692068FEF74DFFB0F1FF3F014681
:1043500008D0012827D107E02046A269FFF706FA16
:10436000054602E0012500E002256369E360237C45
:1043700043F0400323748DB913F0800F11D0019BDB
:1043800004F128015878E2690123FEF75BF920B9AE
:10439000237C03F07F03237403E00125657400E0B0
:1043A000072528467CBD019B9B699842DDD2D3E757
:1043B000F0B59DB01CAB43F86C0D18461BA902224A
:1043C000FEF70AFD044600283AD11B9B1CA840F8C2
:1043D000343D0199FFF7BFF80446002830D19DF81D
:1043E000673013F0200F2ED0841D29E09DF8427015
:1043F00017F0010F2BD015E0062421E073699D42D0
:1044000010D0214603A803960595FEF746FF044603
:10441000B0B9214603A8FFF76CF8044610B1042890
:104420001ED00DE007240BE035B122460FA8294627
:10443000FFF79CF9044618B91B98FEF71EFC0446CA
:1044400020461DB0F0BD13F0800FCFD0D4E71B9EE7
:1044500016993078FEF7A0FE17F0100F0546CDD163
:104460000FA8FEF78BFE04460028DDD0E8E72DE913
:10447000F04194B014AB43F84C0D184613A9022236
:10448000FEF7AAFC044600286FD1139B14A840F83D
:10449000443D0199FFF75FF840B104285ED19DF8D3
:1044A000373013F0200F64D0023057E0082055E079
:1044B000012D06D0A5F1FF3EDEF1000444EB0E0411
:1044C00002E0022400E00724FBF78AFF8046002C6C
:1044D00046D113982946FEF7A7FB044600283FD192
:1044E00013980B2234302021FEF772FA13982E34E1
:1044F000102780F8344080F83F7041464A30FEF77C
:1045000055FA13982A4600F13401FEF757FE139925
:10451000202201F154003431FEF752FA139801269B
:1045200080F8554000F15401059AFEF747FE139BB1
:1045300003A8DE70FFF76BF9044688B90A98414674
:104540001630FEF733FA13980A992A46FEF736FE1C
:104550000A9BDF721398C670FEF78FFB044604E0D7
:104560000FA829460022FFF701F9204614B0BDE844
:10457000F081139B14A840F8143D2146FEF7DAFEA3
:10458000054600289FD093E770B5A4B0019024A8F9
:1045900040F8901D6846FEF700FB01A823A90222FF
:1045A000FEF71AFC00285FD1239B24AC44F8543D4D
:1045B00020460199FEF7CFFF002855D19DF86730BE
:1045C00013F0A00F52D006304EE0119B059A9A428C
:1045D00043D1139B079A9A423FD101E0042843D16B
:1045E00003A8FFF714F900283ED10A9C132204F116
:1045F0000D000DF17901FEF7E3F99DF8773013F026
:10460000100FE37204BF43F02003E372239E0125E1
:10461000F570E37A13F0100F39D0059B119A9A4286
:1046200035D021463078FEF7B7FD01463046FEF71B
:104630000AFA014698B13046FEF77CFB239B98B9F5
:1046400093F855202E2A22D1184603F15401059AD9
:10465000FEF7B4FD239BDD7019E0082004E0022082
:1046600002E02398FEF709FB24B070BD1BA8169941
:104670002022FEF7A5F903A821463022FEF7A0F973
:1046800003A80099FEF767FF00289ED0A6E70FA8B1
:10469000FEF774FD0028E7D1E3E730B591B010AB29
:1046A00043F83C0D0C46154618460FA90222FEF7AA
:1046B00093FB68B90F9B10A840F8343D0199FEF7B1
:1046C0004AFF28B99DF8373013F0A00F02D006300A
:1046D00011B030BD0A9B05F02705DA7A22EA0502FF
:1046E000254042EA0505DD720F980123C370FEF7ED
:1046F000C4FAEDE710B590B010AB43F83C0D0C4692
:1047000018460FA90222FEF767FB68B90F9B10A895
:1047100040F8343D0199FEF71EFF28B99DF8373067
:1047200013F0A00F02D0063010B010BDE388A188AE
:104730000A9843EA01411630FEF738F90F98012331
:10474000C370FEF79AFAEFE770B590B010AB43F87C
:104750003C0D0C46154618460FA90022FEF73CFBFF
:104760000646002838D1FCB10F9B0590314603A8BE
:104770000393FEF792FD98B903A80121FEF7B9FE55
:1047800070B90A9A3346D15CE15401330B2BFAD14C
:104790000022E25443B1013BE25C202AF8D003E05E
:1047A000042818D100232370B5B10F98016AFEF7D1
:1047B000C1FA064680B90F980378033BDBB2012BA0
:1047C0009ABF074A52F823302723C0183430FEF727
:1047D000DEF8286000E00646304610B070BD00BF2D
:1047E000A45C0000F0B597B016AB43F8540D184622
:1047F00015A90222FEF7F0FA04460546002840F00B
:1048000081800FA820210B22FEF7E2F833E0771C0D
:1048100028460197FEF7F5F850B176783046FEF756
:1048200001F920B1013746EA0525019700E0054668
:10483000A5F161039BB2192B02D8203DADB201E076
:10484000002D5CD031482946FEF7D4F8002856D117
:10485000FF2D94BF0B230A239C4250D2FF2D05D974
:1048600016AA13192A0A03F81C2C013416AA1319C4
:1048700003F81C5C0134019E35781F2DC7D89DF8C4
:104880003C30E52B01D13AE0013C2CB116AA1319BA
:1048900013F81D3C202BF7D0159B002103A8039390
:1048A0000591FEF7FAFC054600282BD103A801214B
:1048B000FEF71FFE40B91CB10A980FA90B2216E0A3
:1048C0000A9BE5221A7014E004281AD1D4B103A877
:1048D000FEF783FF0546A8B90A9829462022FEF76D
:1048E00077F80A9B0822DA720A980FA90332FEF7BA
:1048F00067F815980123C370FEF7BFF901E006259C
:1049000000E00546284617B0F0BD00BFAC5C0000D3
:104910002DE9F04F8DB00CAF47F80C0D38460E4620
:1049200015461C46DDF85880FEF737F90028C0F21E
:104930009B82A74B03EB80035B680BB100221A70CC
:104940005FFA80F94846FDF761FD10F0010F40F075
:104950008D8210F0040F40F08B82484603210BAA91
:10496000FDF7C4FE38B90B9B2BB1B3F5004F02D84D
:104970005A1E1A4201D001230B933DB1B5F5007FB9
:10498000C0F07A82B5F1807F00F276826B1E2B42F6
:1049900040F07282002C00F06D825FEA5828CDF85A
:1049A000148000F06782484601210AAAFDF79EFEA6
:1049B000002840F0658216F008000A9B0CBF4FF0FB
:1049C0003F084FF0000843450190C0F05782C8EB04
:1049D00003037F2B0A9340F251826A0A802A00F275
:1049E0004B8216F00201029106D006F0070102295F
:1049F00008D016F0010F05D016F0010F00F03C8230
:104A0000022500E003250B995F0C481E4FEA133B7B
:104A1000032D0697CDF81CB00890C1F1000C28D1E9
:104A200002E00A4625E0032552B96A49012600E062
:104A3000760031F8020F20B1069FB842F8D900E0A5
:104A40001646B3FBF6FAAAF57E416348A1F5FB7161
:104A5000814200F213824FEA8A0A0AF5007A0AF1CB
:104A6000070A4FF0000B4FEA5A2ACDF810B0202762
:104A70002AE052B95949012600E0760031F8020FC8
:104A800020B1079DA842F8D900E01646B3FBF6FA1C
:104A900040F6F5718A4505D90AF1020A4FEA4A0A39
:104AA000022508E00AEB4A0A0AF1010A4FEA5A0A0B
:104AB0000AF1030A01250AF5FE7A20270AF1030A02
:104AC00004974FEA5A2A1F3F049807EB080B00EBA4
:104AD0000A015944CDF80CB0DDF820B0032D01EBEC
:104AE0000B0000EA0C00C1EB000006D1DDF80CB0B1
:104AF0003F188344CDF80CB000E082443001C8EB8D
:104B0000000041188B42C0F0B981C7EB030B049839
:104B1000CAEB0B0BC0EB0B0B032DBBFBF6FB0AD157
:104B20004FF6F5718B4527D8002A40F0A78172080F
:104B30007FF47AAFA2E1022D16D14FF6F5718B45C5
:104B400007D91AB9710040297FF66BAF029921B1DC
:104B500069E740F6F5718B450ED8002A40F08E814A
:104B60007200802A85D989E1012D04D140F6F573C0
:104B70009B4501D982E10025002120464FF40072B7
:104B8000FDF726FF0B2220461549FDF719FF04F11A
:104B90000B004FF40071FDF705FF04F10E00B9B2F0
:104BA0006673FDF7FFFE0123032D14BF4FF4007160
:104BB0000021237404F11100FDF7F4FE0A99B1F508
:104BC000803F0FD204F1130089B2FDF7EBFE0DE038
:104BD0002C010010BC5C0000FFFFFE0FCA5C00004F
:104BE000EB5C000004F12000FDF7E0FEF8236375A4
:104BF0003F2104F11800FDF7D5FEFF2104F11A0052
:104C0000FDF7D0FE04F11C004146FDF7CFFE032D59
:104C100024D1FBF7E5FB014604F14300FDF7C6FE96
:104C200004F124005146FDF7C1FE04F12C000221DD
:104C3000FDF7BCFE04F130000121FDF7B3FE04F1E5
:104C400032000621FDF7AEFE802384F84030573B4A
:104C500084F8423004F147008C4915E0FBF7C0FBB3
:104C6000014604F12700FDF7A1FE04F116001FFA2A
:104C70008AF1FDF797FE802384F824308449573B5E
:104C800084F8263004F12B001322FDF799FE04F579
:104C9000FF7318464AF655210293FDF783FE4846F6
:104CA000214642460123FDF7CDFC0746002840F08F
:104CB000E780032D33D10123214608F1060248463F
:104CC000FDF7C0FC4FF4007220463946FDF780FE28
:104CD00020467049FDF76AFE04F5F2706E49FDF753
:104CE00065FE04F5F4700BF1FF31FDF75FFE04F58E
:104CF000F6700221FDF75AFE02984AF65521FDF79B
:104D000051FE214608F1070201234846FDF79AFCAF
:104D10004846214608F101020123FDF793FC059F57
:104D200000217A022046FDF753FE032D0ED12046C6
:104D30006FF00701FDF73AFE201D4FF0FF31FDF740
:104D400035FE04F108006FF0704105E05349012D74
:104D5000204618BF6FF00701FDF728FE039FD346DA
:104D6000AA46059D2146AB4538BF5D4648463A46B2
:104D70002B46FDF767FC0146002840F08180204665
:104D80004FF40072FDF724FEBBEB050B2F44E8D176
:104D90005546DDF810A0032D08BFB2462E46059DEE
:104DA0004846AA4538BF554621463A462B46FDF7A8
:104DB00049FC002864D1BAEB050A01D07F19EEE75F
:104DC000032E08D00A9BB3F5803F06D2022E14BFF3
:104DD0000125042502E00C2500E0062501980028A5
:104DE00039D14FF4007220460199FDF7F1FD029888
:104DF0004AF65521FDF7D6FD0A9B43F6C1624344AE
:104E0000B3FBF2F3FE22019984F8C3219A0842F021
:104E10003F02012604F5DF7784F8C42184F8C53108
:104E200084F8BE1184F8C11107F10800414684F8E6
:104E3000BF6184F8C06184F8C251FDF7B7FD07F186
:104E40000C000A99FDF7B2FD48462146019A334607
:104E5000FDF7F8FBB0B9002148460A46FDF746FCCD
:104E6000003818BF01200EE00B200CE003200AE000
:104E70000A2008E0112006E0132004E00E2002E0E2
:104E8000012000E030460DB0BDE8F08FF75C000077
:104E90000B5D00005252614172724161F8FFFF00E8
:104EA000032AC9B270B408D82AB10346121803F80D
:104EB000011B9342FBD170BC70478218044601E08D
:104EC00004F8011B14F0030FFAD14FF0013303FB78
:104ED00001F31FE044F8403C44F83C3C44F8383CC3
:104EE00044F8343C44F8303C44F82C3C44F8283C2A
:104EF00044F8243C44F8203C44F81C3C44F8183C5A
:104F000044F8143C44F8103C44F80C3C44F8083C89
:104F100044F8043C161B254640343F2EDADC2C4670
:104F200007E044F8103C44F80C3C44F8083C44F8D2
:104F3000043C161B254610340F2EF2DC01E045F828
:104F4000043B541B032CFADC01E005F8011B9542DD
:104F5000FBD3B0E7C9B2F0B4002950D010F0030F72
:104F600010D00378002B79D0994246D0431C05E03D
:104F700013F8012B002A3FD091423ED013F0030FCB
:104F80001846F5D1036841EA01270646A3F101322C
:104F900047EA074722EA030212F0803F1DD187EA61
:104FA0000303A3F1013222EA030313F0803F14D17B
:104FB000043002E012F0803F0FD1064650F8043B67
:104FC000A3F1013587EA030225EA0303A2F10134C4
:104FD00013F0803F24EA0202ECD033783046002BF5
:104FE0003CD0994209D0731C01E0914205D018468B
:104FF00013F8012B002AF8D11046F0BC704710F0CE
:10500000030F0CD00378002BF7D0431C03E013F8F8
:10501000012B002AF1D013F0030F1846F7D10268D4
:105020000346A2F1013121EA020212F0803F0AD1C7
:105030000430034650F8042BA2F1013121EA0202A8
:1050400012F0803FF5D01A781846002AD5D00133E7
:10505000184613F8012B002AFAD1CEE71846CCE700
:1050600080EA0102844612F0030F4FD111F0030FC2
:1050700032D14DF8044D11F0040F51F8043B0BD020
:10508000A3F101329A4312F0803F04BF4CF8043B75
:1050900051F8043B16D100BF51F8044BA3F1013283
:1050A0009A4312F0803FA4F101320BD14CF8043B3B
:1050B000A24312F0803F04BF51F8043B4CF8044B6C
:1050C000EAD023460CF8013B13F0FF0F4FEA3323DD
:1050D000F8D15DF8044B704711F0010F06D011F8BC
:1050E000012B0CF8012B002A08BF704711F0020FAA
:1050F000BFD031F8022B12F0FF0F16BF2CF8022B95
:105100008CF8002012F47F4FB3D1704711F8012BB7
:105110000CF8012B002AF9D1704700BF20F00301E1
:1051200010F00300C0F1000051F8043B00F1040C42
:105130004FEACC0C6FF000021CBF22FA0CF21343B2
:105140004FF0010C4CEA0C2C4CEA0C4CA3EB0C027B
:1051500022EA030212EACC1204BF51F8043B0430E5
:10516000F4D013F0FF0F1FBF013013F47F4F013055
:1051700013F47F0F18BF0130704700BF4F4B00443E
:1051800049534B5F45525200494E545F45525200BD
:105190004E4F545F5245414459004E4F5F46494C73
:1051A00045004E4F5F5041544800494E56414C49CE
:1051B000445F4E414D450044454E494544004558E5
:1051C00049535400494E56414C49445F4F424A4569
:1051D00043540057524954455F50524F544543542D
:1051E000454400494E56414C49445F445249564556
:1051F000004E4F545F454E41424C4544004E4F5F78
:1052000046494C455F53595354454D004D4B465309
:105210005F41424F525445440054494D454F555407
:10522000004C4F434B4544004E4F545F454E4F5545
:1052300047485F434F524500544F4F5F4D414E59D1
:105240005F4F50454E5F46494C455300494E5641CD
:105250004C49445F504152414D4554455200005B1A
:105260004469736B20636F6E746F726C735D0A2098
:105270006469203C7064233E202D20496E69746966
:10528000616C697A65206469736B0A206464205BD1
:105290003C7064233E203C6C62613E5D202D2044C6
:1052A000756D7020612073656372746F720A20647B
:1052B00073203C7064233E202D2053686F77206458
:1052C00069736B207374617475730A5B42756666EB
:1052D000657220636F6E74726F6C735D0A20626416
:1052E000203C6F66733E202D2044756D7020776FD3
:1052F000726B696E67206275666665720A20626508
:10530000203C6F66733E205B3C646174613E5D20AF
:105310002E2E2E202D204564697420776F726B69C4
:105320006E67206275666665720A206272203C7044
:1053300064233E203C6C62613E205B3C636F756E73
:10534000743E5D202D2052656164206469736B207A
:10535000696E746F20776F726B696E672062756615
:105360006665720A206277203C7064233E203C6CA4
:1053700062613E205B3C636F756E743E5D202D2044
:10538000577269746520776F726B696E67206275FA
:105390006666657220696E746F206469736B0A209B
:1053A0006266203C76616C3E202D2046696C6C2044
:1053B000776F726B696E67206275666665720A5BED
:1053C00046696C652073797374656D20636F6E74C4
:1053D000726F6C735D0A206669203C6C64233E200A
:1053E0005B3C6D6F756E743E5D2D20466F7263651C
:1053F00020696E697469616C697A65642074686596
:1054000020766F6C756D650A206673205B3C706159
:1054100074683E5D202D2053686F7720766F6C7521
:105420006D65207374617475730A20666C205B3C33
:10543000706174683E5D202D2053686F7720612075
:105440006469726563746F72790A20664C203C70DF
:105450006174683E203C7061743E202D205365616C
:10546000726368206469726563746F72790A20667A
:105470006F203C6D6F64653E203C66696C653E2024
:105480002D204F70656E20612066696C650A20666C
:1054900063202D20436C6F736520746865206669F6
:1054A0006C650A206665203C6F66733E202D204D9A
:1054B0006F766520667020696E206E6F726D616C0C
:1054C000207365656B0A206664203C6C656E3E2027
:1054D0002D205265616420616E642064756D7020BA
:1054E0007468652066696C650A206672203C6C658C
:1054F0006E3E202D205265616420746865206669C7
:105500006C650A206677203C6C656E3E203C7661B7
:105510006C3E202D20577269746520746F2074686A
:10552000652066696C650A20666E203C6F72672E86
:105530006E616D653E203C6E65772E6E616D653ED9
:10554000202D2052656E616D6520616E206F626A4C
:105550006563740A206675203C6E616D653E202D82
:1055600020556E6C696E6B20616E206F626A656398
:10557000740A206676202D205472756E63617465FE
:10558000207468652066696C65206174206375729B
:1055900072656E742066700A20666B203C6E616DC9
:1055A000653E202D20437265617465206120646929
:1055B000726563746F72790A206661203C6174724F
:1055C000723E203C6D61736B3E203C6F626A656386
:1055D00074206E616D653E202D204368616E6765A5
:1055E00020617474726962757465206F6620616EE3
:1055F000206F626A6563740A206674203C79656175
:10560000723E203C6D6F6E74683E203C6461793E52
:10561000203C686F75723E203C6D696E3E203C7385
:1056200065633E203C6E616D653E202D20436861C0
:105630006E67652074696D657374616D70206F6647
:1056400020616E206F626A6563740A206678203C70
:105650007372632E66696C653E203C6473742E66BB
:10566000696C653E202D20436F707920612066694A
:105670006C650A206667203C706174683E202D20AE
:105680004368616E67652063757272656E7420642D
:1056900069726563746F72790A206671202D2053D8
:1056A000686F772063757272656E742064697265C5
:1056B00063746F72790A206662203C6E616D653E8C
:1056C000202D2053657420766F6C756D65206C619C
:1056D00062656C0A20666D203C6C64233E203C743D
:1056E0007970653E203C6373697A653E202D2043C6
:1056F00072656174652066696C6520737973746581
:105700006D0A20667A205B3C6C656E3E5D202D2024
:105710004368616E67652F53686F7720522F57205B
:105720006C656E67746820666F722066722F66778C
:105730002F667820636F6D6D616E640A5B4D6973CF
:105740006320636F6D6D616E64735D0A2070203C31
:1057500077617666696C653E202D20506C617920FA
:10576000524946462D574156452066696C650A20C8
:105770006D645B627C687C775D203C616464723E32
:10578000205B3C636F756E743E5D202D2044756D0B
:1057900070206D656D6F72790A206D66203C6164C2
:1057A00064723E203C76616C75653E203C636F758B
:1057B0006E743E202D2046696C6C206D656D6F7295
:1057C000790A206D655B627C687C775D203C616452
:1057D00064723E205B3C76616C75653E202E2E2EF9
:1057E0005D202D2045646974206D656D6F72790AA6
:1057F0002074205B3C796561723E203C6D6F6E3E8B
:10580000203C6D6461793E203C686F75723E203C9F
:105810006D696E3E203C7365633E5D202D205365AF
:10582000742F53686F77205254430A0A0000000017
:105830003E5A0000105C0000165C00001C5C00007A
:10584000225C000072633D25752046525F25730A75
:1058500000566F6C756D65206E616D6520697320F3
:1058600025730A004E6F20766F6C756D65206C6134
:1058700062656C0A004C50433137363820746573CA
:1058800074206D6F6E69746F720A004C464E3D2530
:10589000732C2043503D25750A0044697361626C86
:1058A00065640025303858203078253038582D0070
:1058B00025303858203078253034582D00253038A0
:1058C00058203078253032582D0072633D25640A07
:1058D000005044233A2575204C42413A256C750A04
:1058E0000044726976652073697A653A20256C7583
:1058F00020736563746F72730A00426C6F636B2070
:1059000073697A653A20256C7520736563746F72CC
:10591000730A004D6564696120747970653A2025C9
:10592000750A004353443A0A004349443A0A004F77
:1059300043523A0A005344205374617475733A0A0F
:10594000002530345820253032582D003F3F3F0A83
:105950000072633D25750A004641542074797065D4
:10596000203D2025730A0042797465732F436C75BE
:1059700073746572203D20256C750A004E756D624A
:105980006572206F662046415473203D2025750ABC
:1059900000526F6F742044495220656E74726965BD
:1059A00073203D2025750A00536563746F72732F51
:1059B000464154203D20256C750A004E756D626588
:1059C00072206F6620636C757374657273203D205E
:1059D000256C750A00566F6C756D65207374617265
:1059E0007420286C626129203D20256C750A0046D0
:1059F000415420737461727420286C626129203DC7
:105A000020256C750A0046444952207374617274F3
:105A100020286C62612C636C7573746F7229203D51
:105A200020256C750A00446174612073746172747E
:105A300020286C626129203D20256C750A0A0056D9
:105A40006F6C756D6520532F4E206973202530349F
:105A5000582D253034580A000D25752066696C656F
:105A6000732C20256C752062797465732E0A257558
:105A700020666F6C646572732E0A256C75204B6905
:105A80004220746F74616C206469736B2073706161
:105A900063652E0A256C75204B6942206176616929
:105AA0006C61626C652E0A0025632563256325639E
:105AB00025632025752F253032752F25303275202E
:105AC000253032753A253032752025396C75202005
:105AD00025730A002534752046696C652873292CC6
:105AE0002531306C7520627974657320746F746130
:105AF0006C0A25347520446972287329002C2025EE
:105B000031306C7520627974657320667265650A40
:105B100000667074723D256C75283078256C5829A4
:105B20000A00256C75206279746573207265616462
:105B300020617420256C75206B422F7365632E0ADB
:105B400000256C75206279746573207772697474AE
:105B5000656E20617420256C75206B422F73656320
:105B60002E0A004F70656E696E6720222573220031
:105B70004372656174696E67202225732200436F4A
:105B80007079696E672066696C652E2E2E000A2575
:105B90006C7520627974657320636F706965642029
:105BA000617420256C75206B422F7365632E0A008B
:105BB00054686520766F6C756D652077696C6C2014
:105BC000626520666F726D61747465642E20417227
:105BD0006520796F7520737572653F2028592F6E87
:105BE000293D00626C656E3D25750A0057415620BF
:105BF000506C617965720025752F25752F257520EC
:105C0000253032753A253032753A253032750A0022
:105C100046415431320046415431360046415433F6
:105C2000320065784641540053746572656F004DCB
:105C30006F6E6F002A2A2A2A202573202A2A2A2AF0
:105C40000A00494152543D25730A494E414D3D25B4
:105C5000730A0053616D706C653D25752E25756B5B
:105C6000487A2F25756269742F25730A4C656E6713
:105C700074683D25753A253032750A000D54696DFA
:105C8000653D25753A25303275002530386C583A17
:105C9000002025303258002025303458002025308F
:105CA000384C580043000000640000002B2E2C3BB1
:105CB0003D5B5D2F5C222A3A3C3E3F7C7F00010029
:105CC0000200040008001000200000000100040091
